:0B0ED400D288D28AC2A8C2AAD2AF22E4
:03000300020E6C7E
:100E6C00C0E0C083C08290000BE004F0D082D0833D
:030E7C00D0E03291
:03001300020E7F5B
:100E7F00C0E0C083C08290000CE004F0D082D08329
:030E8F00D0E0327E
:100CDE0041000500410004004100010041000000F8
:080CEE00410002004100030077
:100D0500E4F594F593F592F591F596F595F5B2F52B
:100D1500B1F5B4F5B3F5CAF5C9F5CCF5CBF5E2F502
:020D2500E122C9
:100DC100120D05E4F5B275B10875DE0F75BC83121D
:080DD1000B08120D87020E92BF
:100BA10030B21B900006E064017013C2CD900007C3
:100BB100F0A37405F0E4900009F0A3F0D2B120B2E3
:100BC1000C900006E064017004D2CDD2B120B20ACB
:0B0BD100900006E07004C2CDD2B122FB
:100D870020B0069000047402F020CC069000047492
:0E0D970001F030B00830CC05E4900004F022EA
:100B080043BC400000E5BC30E5FB53BCDF9000026D
:100B1800E5BDF0E0FF7E00C394A074809480400699
:100B28009000057403F0C3EF94A0EE6480948050A5
:100B380011C3EF9482EE648094804006900005749F
:100B480002F0C3EF9482EE64809480500690000512
:040B58007401F02212
:10092400E490001FF0A3F0120DC1900001E0FF7EDF
:10093400006407600FEF6406600AEF64056005EF6A
:1009440064047070C2CDEF64074E7040D2B1C2CD62
:1009540090000304F0900003E06401702FC2B07FA4
:1009640001120EC6D2B090001FE4F0A37464F0909C
:10097400001F74FFF5F0120B7545F060030080EF63
:10098400900004E070CF900003F080C9900001E073
:10099400FF7E0064067004C2B1C2CDEF64054E70E0
:1009A40004C2B1C2CDEF64044E7004C2B1C2CDC260
:1009B400CD02092E900001E0FF7E006403600DEF7C
:1009C40064026008EF6401600302092EEF64034EC1
:1009D4007003120BA1900001E06402700990000002
:1009E400E07003120BA1900001E0640170C6C2B173
:1009F400C2CD90000004F0900000E060B7900004C5
:100A0400E0FF64016005EF640270ECE4900000F024
:020A140080E57B
:0E0CF600410006004200090000420007000015
:100E9200438E80E4F589758ACD758CD4D28CD2A923
:030EA200D2AF22AA
:03000B00020800E8
:10080000C0E0C0F0C083C082C0D075D008120D8790
:1008100090000AE004F07006900009E004F09000F7
:1008200009E0FEA3E0FFE4FCFD7B607AEAF9F8D37F
:10083000120B8B5015900009E4F0A3F0900008E033
:1008400004F07006900007E004F0900007E0FEA3BB
:10085000E0FFC3EE9400400EEF9405EE94005006C6
:100860009000067401F0C3EF9405EE9400400DEF84
:10087000941EEE94005005900006E4F0EF641E4EC6
:100880007009900007F0A3F0120B08900004E0FF3D
:100890007E00640270069000017407F0900005E08D
:1008A000FD7C006403700CEF64014E700690000143
:1008B0007406F0ED64024C700E900004E064017068
:1008C000069000017405F0900005E06401700E9040
:1008D0000004E0640170069000017404F0900005CB
:1008E000E0FF7E006403700C900004E0700690004E
:1008F000017403F0EF64024E700C900004E0700687
:100900009000017402F0900005E06401700B90000B
:1009100004E0700590000104F0D0D0D082D083D0E4
:04092000F0D0E03201
:100DA500E5A2543FF5A27598DA758E40E4F589758C
:0C0DB5008BE8758DFFD28ED2ACD2AF223D
:03002300020DD9F2
:100DD900C0D0309809C298859980A29A92A2309978
:080DE90004C299C200D0D0320F
:100EA5002000FDEF30D004D29B8002C29BD200F51A
:020EB500992280
:100C1200900013EBF0A3EAF0A3E9F0900013E0FBDD
:100C2200A3E0FAA3E0F9120B5C6017900013A3E4AF
:100C320075F001120B75A9F0FA120B5CFF120EA5EA
:030C420080D92234
:100DF10053BAFE759ADA75D7E875D6FF758E1475F4
:050E0100AF01D2AF2299
:03004300020D2784
:100D2700C0E0E59A30E00C539AFE859B80E59A5423
:100D370004F5A0E59A30E105539AFDC200D0E032F0
:100E30002000FDEF30D005439A088003539AF7D283
:040E400000F59B22FC
:100C4500900016EBF0A3EAF0A3E9F0900016E0FBA4
:100C5500A3E0FAA3E0F9120B5C6017900016A3E479
:100C650075F001120B75A9F0FA120B5CFF120E302C
:030C750080D92201
:100E060053BAFD75AC9A75D7E875D6FF758E14750D
:050E1600AF08D2AF227D
:03008B00020D471C
:100D4700C0E0E5AC30E00C53ACFE85AD80E5AC54BB
:100D570004F5A0E5AC30E10553ACFDC200D0E032AC
:100E44002000FDEF30D00543AC08800353ACF7D24B
:040E540000F5AD22D6
:100C7800900019EBF0A3EAF0A3E9F0900019E0FB6B
:100C8800A3E0FAA3E0F9120B5C6017900019A3E443
:100C980075F001120B75A9F0FA120B5CFF120E44E5
:030CA80080D922CE
:100E1B0053BAFB75849A75D7E875D6FF758E147522
:050E2B00AF10D2AF2260
:03009300020D67F4
:100D6700C0E0E58430E00C5384FE858580E584543B
:100D770004F5A0E58430E1055384FDC200D0E032DC
:100E58002000FDEF30D00543840880035384F7D287
:040E680000F58522EA
:100CAB0090001CEBF0A3EAF0A3E9F090001CE0FB32
:100CBB00A3E0FAA3E0F9120B5C601790001CA3E40D
:100CCB0075F001120B75A9F0FA120B5CFF120E589E
:030CDB0080D9229B
:0E0EB70000007F057E347DC3DDFEDEFCDFFA29
:010EC500220A
:0E0EC600AC07AF041CEF6005120EB780F522DA
:100AA20090000F74F1F0E4900012F0900012E0C395
:100AB200940774809480501690000FE0FF04F0A811
:100AC20007E6FF120EA5900012E004F080DD900010
:100AD2001074EFF0A374F9F0E4A3F0900012E0C3F5
:100AE200940774809480501D900010E475F00112F8
:100AF2000B7585F082F583E493FF120EA590001228
:050B0200E004F080D6C4
:010B070022CB
:100BDC00E5A254CFF5A2E4F5D8F5E9F5F975D902FB
:100BEC00F5F275EA2075FA2075DA4275F34075EB6B
:100BFC002075FB2075DB4275F48075EC2075FC20AC
:060C0C0075DC42D2DE227D
:03000000020A16DB
:0C0A1600787FE4F6D8FD758120020A5DAF
:100B5C00BB010689828A83E0225002E722BBFE0297
:090B6C00E32289828A83E49322CA
:100B7500A3F8E0C5F025F0F0E58215827002158333
:060B8500E0C838F0E82290
:100B8B00EB9FF5F0EA9E42F0E99D42F0EC6480C8E1
:060B9B0064809845F02281
:100A2200020924E493A3F8E493A34003F68001F2BD
:100A320008DFF48029E493A3F85407240CC8C333D5
:100A4200C4540F4420C8834004F456800146F6DFA4
:100A5200E4800B0102040810204080900CDEE47E4A
:100A6200019360BCA3FF543F30E509541FFEE49399
:100A7200A360010ECF54C025E060A840B8E493A360
:100A8200FAE493A3F8E493A3C8C582C8CAC583CA8B
:100A9200F0A3C8C582C8CAC583CADFE9DEE780BE43
:010D040000EE
:00000001FF
